{
  "contractName": "ExampleWithRevert",
  "abi": [
    {
      "constant": true,
      "inputs": [
        {
          "name": "",
          "type": "bytes32"
        }
      ],
      "name": "data",
      "outputs": [
        {
          "name": "",
          "type": "uint256"
        }
      ],
      "payable": false,
      "stateMutability": "view",
      "type": "function"
    },
    {
      "constant": true,
      "inputs": [],
      "name": "COOLING_OFF",
      "outputs": [
        {
          "name": "",
          "type": "uint256"
        }
      ],
      "payable": false,
      "stateMutability": "view",
      "type": "function"
    },
    {
      "constant": true,
      "inputs": [
        {
          "name": "locker",
          "type": "address"
        }
      ],
      "name": "lastLock",
      "outputs": [
        {
          "name": "",
          "type": "uint256"
        }
      ],
      "payable": false,
      "stateMutability": "view",
      "type": "function"
    },
    {
      "constant": false,
      "inputs": [
        {
          "name": "nameOfData",
          "type": "string"
        },
        {
          "name": "key",
          "type": "bytes32"
        },
        {
          "name": "locker",
          "type": "address"
        },
        {
          "name": "data",
          "type": "uint256"
        }
      ],
      "name": "lockWithRevertUint",
      "outputs": [
        {
          "name": "lockStatus",
          "type": "uint8"
        },
        {
          "name": "revertData",
          "type": "uint256"
        }
      ],
      "payable": false,
      "stateMutability": "nonpayable",
      "type": "function"
    },
    {
      "constant": false,
      "inputs": [
        {
          "name": "nameOfData",
          "type": "string"
        },
        {
          "name": "locker",
          "type": "address"
        }
      ],
      "name": "lockSingleWithDeposit",
      "outputs": [],
      "payable": true,
      "stateMutability": "payable",
      "type": "function"
    },
    {
      "constant": false,
      "inputs": [
        {
          "name": "nameOfData",
          "type": "string"
        },
        {
          "name": "key",
          "type": "bytes32"
        },
        {
          "name": "locker",
          "type": "address"
        }
      ],
      "name": "lockWithDeposit",
      "outputs": [],
      "payable": true,
      "stateMutability": "payable",
      "type": "function"
    },
    {
      "constant": true,
      "inputs": [],
      "name": "scaleRefund",
      "outputs": [
        {
          "name": "",
          "type": "bool"
        }
      ],
      "payable": false,
      "stateMutability": "view",
      "type": "function"
    },
    {
      "constant": false,
      "inputs": [
        {
          "name": "nameOfData",
          "type": "string"
        },
        {
          "name": "locker",
          "type": "address"
        }
      ],
      "name": "lockSingle",
      "outputs": [
        {
          "name": "",
          "type": "bool"
        }
      ],
      "payable": false,
      "stateMutability": "nonpayable",
      "type": "function"
    },
    {
      "constant": false,
      "inputs": [
        {
          "name": "nameOfData",
          "type": "string"
        },
        {
          "name": "key",
          "type": "bytes32"
        },
        {
          "name": "locker",
          "type": "address"
        }
      ],
      "name": "isLocked",
      "outputs": [
        {
          "name": "",
          "type": "uint8"
        }
      ],
      "payable": false,
      "stateMutability": "nonpayable",
      "type": "function"
    },
    {
      "constant": true,
      "inputs": [
        {
          "name": "nameOfData",
          "type": "string"
        },
        {
          "name": "key",
          "type": "bytes32"
        }
      ],
      "name": "getCurrLocker",
      "outputs": [
        {
          "name": "",
          "type": "address"
        }
      ],
      "payable": false,
      "stateMutability": "view",
      "type": "function"
    },
    {
      "constant": true,
      "inputs": [
        {
          "name": "locker",
          "type": "address"
        }
      ],
      "name": "expBlock",
      "outputs": [
        {
          "name": "",
          "type": "uint256"
        }
      ],
      "payable": false,
      "stateMutability": "view",
      "type": "function"
    },
    {
      "constant": true,
      "inputs": [
        {
          "name": "locker",
          "type": "address"
        }
      ],
      "name": "isExpired",
      "outputs": [
        {
          "name": "",
          "type": "bool"
        }
      ],
      "payable": false,
      "stateMutability": "view",
      "type": "function"
    },
    {
      "constant": true,
      "inputs": [
        {
          "name": "",
          "type": "address"
        }
      ],
      "name": "userRecords",
      "outputs": [
        {
          "name": "expiry",
          "type": "uint256"
        },
        {
          "name": "deposit",
          "type": "uint256"
        },
        {
          "name": "lastLockTime",
          "type": "uint256"
        }
      ],
      "payable": false,
      "stateMutability": "view",
      "type": "function"
    },
    {
      "constant": true,
      "inputs": [],
      "name": "DEPOSIT_FEE",
      "outputs": [
        {
          "name": "",
          "type": "uint256"
        }
      ],
      "payable": false,
      "stateMutability": "view",
      "type": "function"
    },
    {
      "constant": true,
      "inputs": [],
      "name": "single",
      "outputs": [
        {
          "name": "",
          "type": "uint256"
        }
      ],
      "payable": false,
      "stateMutability": "view",
      "type": "function"
    },
    {
      "constant": true,
      "inputs": [],
      "name": "TIMEOUT",
      "outputs": [
        {
          "name": "",
          "type": "uint256"
        }
      ],
      "payable": false,
      "stateMutability": "view",
      "type": "function"
    },
    {
      "anonymous": false,
      "inputs": [
        {
          "indexed": false,
          "name": "data",
          "type": "uint256"
        }
      ],
      "name": "Dismounted",
      "type": "event"
    },
    {
      "constant": true,
      "inputs": [
        {
          "name": "location",
          "type": "string"
        }
      ],
      "name": "getData",
      "outputs": [
        {
          "name": "",
          "type": "uint256"
        }
      ],
      "payable": false,
      "stateMutability": "view",
      "type": "function"
    },
    {
      "constant": false,
      "inputs": [
        {
          "name": "key",
          "type": "string"
        },
        {
          "name": "value",
          "type": "uint256"
        }
      ],
      "name": "setData",
      "outputs": [],
      "payable": true,
      "stateMutability": "payable",
      "type": "function"
    },
    {
      "constant": false,
      "inputs": [
        {
          "name": "locker",
          "type": "address"
        }
      ],
      "name": "release",
      "outputs": [],
      "payable": false,
      "stateMutability": "nonpayable",
      "type": "function"
    }
  ],
  "bytecode": "0x6080604052600a600055662386f26fc1000060015560146002556001600360006101000a81548160ff021916908315150217905550611db1806100436000396000f3fe608060405260043610610101576000357c0100000000000000000000000000000000000000000000000000000000900480630147fb0c1461010657806314423fc31461015557806319165587146101805780631d90382e146101d1578063294e2e5914610236578063396ab6f21461035b578063491fb0f3146104365780634c54ecb11461051b5780636612c79d1461054a5780637d954f881461064a578063881b088e1461075e578063ae55c88814610870578063af22068e1461094c578063b26e410e14610a11578063ba2eb54114610a76578063dabd2c8014610adf578063de363e6514610b52578063de3e828e14610b7d578063f56f48f214610ba8575b600080fd5b34801561011257600080fd5b5061013f6004803603602081101561012957600080fd5b8101908080359060200190929190505050610bd3565b6040518082815260200191505060405180910390f35b34801561016157600080fd5b5061016a610beb565b6040518082815260200191505060405180910390f35b34801561018c57600080fd5b506101cf600480360360208110156101a357600080fd5b81019080803573ffffffffffffffffffffffffffffffffffffffff169060200190929190505050610bf1565b005b3480156101dd57600080fd5b50610220600480360360208110156101f457600080fd5b81019080803573ffffffffffffffffffffffffffffffffffffffff169060200190929190505050610bfd565b6040518082815260200191505060405180910390f35b34801561024257600080fd5b506103306004803603608081101561025957600080fd5b810190808035906020019064010000000081111561027657600080fd5b82018360208201111561028857600080fd5b803590602001918460018302840111640100000000831117156102aa57600080fd5b91908080601f016020809104026020016040519081016040528093929190818152602001838380828437600081840152601f19601f82011690508083019250505050505050919291929080359060200190929190803573ffffffffffffffffffffffffffffffffffffffff16906020019092919080359060200190929190505050610c49565b6040518083600281111561034057fe5b60ff1681526020018281526020019250505060405180910390f35b6104346004803603604081101561037157600080fd5b810190808035906020019064010000000081111561038e57600080fd5b8201836020820111156103a057600080fd5b803590602001918460018302840111640100000000831117156103c257600080fd5b91908080601f016020809104026020016040519081016040528093929190818152602001838380828437600081840152601f19601f820116905080830192505050505050509192919290803573ffffffffffffffffffffffffffffffffffffffff169060200190929190505050610d2d565b005b6105196004803603606081101561044c57600080fd5b810190808035906020019064010000000081111561046957600080fd5b82018360208201111561047b57600080fd5b8035906020019184600183028401116401000000008311171561049d57600080fd5b91908080601f016020809104026020016040519081016040528093929190818152602001838380828437600081840152601f19601f82011690508083019250505050505050919291929080359060200190929190803573ffffffffffffffffffffffffffffffffffffffff169060200190929190505050610dfb565b005b34801561052757600080fd5b50610530610ecb565b604051808215151515815260200191505060405180910390f35b34801561055657600080fd5b506106306004803603604081101561056d57600080fd5b810190808035906020019064010000000081111561058a57600080fd5b82018360208201111561059c57600080fd5b803590602001918460018302840111640100000000831117156105be57600080fd5b91908080601f016020809104026020016040519081016040528093929190818152602001838380828437600081840152601f19601f820116905080830192505050505050509192919290803573ffffffffffffffffffffffffffffffffffffffff169060200190929190505050610ede565b604051808215151515815260200191505060405180910390f35b34801561065657600080fd5b5061073a6004803603606081101561066d57600080fd5b810190808035906020019064010000000081111561068a57600080fd5b82018360208201111561069c57600080fd5b803590602001918460018302840111640100000000831117156106be57600080fd5b91908080601f016020809104026020016040519081016040528093929190818152602001838380828437600081840152601f19601f82011690508083019250505050505050919291929080359060200190929190803573ffffffffffffffffffffffffffffffffffffffff169060200190929190505050610ef7565b6040518082600281111561074a57fe5b60ff16815260200191505060405180910390f35b34801561076a57600080fd5b5061082e6004803603604081101561078157600080fd5b810190808035906020019064010000000081111561079e57600080fd5b8201836020820111156107b057600080fd5b803590602001918460018302840111640100000000831117156107d257600080fd5b91908080601f016020809104026020016040519081016040528093929190818152602001838380828437600081840152601f19601f82011690508083019250505050505050919291929080359060200190929190505050610fef565b604051808273ffffffffffffffffffffffffffffffffffffffff1673ffffffffffffffffffffffffffffffffffffffff16815260200191505060405180910390f35b34801561087c57600080fd5b506109366004803603602081101561089357600080fd5b81019080803590602001906401000000008111156108b057600080fd5b8201836020820111156108c257600080fd5b803590602001918460018302840111640100000000831117156108e457600080fd5b91908080601f016020809104026020016040519081016040528093929190818152602001838380828437600081840152601f19601f820116905080830192505050505050509192919290505050611051565b6040518082815260200191505060405180910390f35b610a0f6004803603604081101561096257600080fd5b810190808035906020019064010000000081111561097f57600080fd5b82018360208201111561099157600080fd5b803590602001918460018302840111640100000000831117156109b357600080fd5b91908080601f016020809104026020016040519081016040528093929190818152602001838380828437600081840152601f19601f8201169050808301925050505050505091929192908035906020019092919050505061107b565b005b348015610a1d57600080fd5b50610a6060048036036020811015610a3457600080fd5b81019080803573ffffffffffffffffffffffffffffffffffffffff1690602001909291905050506112c7565b6040518082815260200191505060405180910390f35b348015610a8257600080fd5b50610ac560048036036020811015610a9957600080fd5b81019080803573ffffffffffffffffffffffffffffffffffffffff169060200190929190505050611313565b604051808215151515815260200191505060405180910390f35b348015610aeb57600080fd5b50610b2e60048036036020811015610b0257600080fd5b81019080803573ffffffffffffffffffffffffffffffffffffffff169060200190929190505050611361565b60405180848152602001838152602001828152602001935050505060405180910390f35b348015610b5e57600080fd5b50610b6761138b565b6040518082815260200191505060405180910390f35b348015610b8957600080fd5b50610b92611391565b6040518082815260200191505060405180910390f35b348015610bb457600080fd5b50610bbd611397565b6040518082815260200191505060405180910390f35b60066020528060005260406000206000915090505481565b60025481565b610bfa8161139d565b50565b6000600560008373ffffffffffffffffffffffffffffffffffffffff1673ffffffffffffffffffffffffffffffffffffffff168152602001908152602001600020600301549050919050565b600080610c57868686610ef7565b9150600280811115610c6557fe5b826002811115610c7157fe5b141515610cd057606060206040519080825280601f01601f191660200182016040528015610cae5781602001600182028038833980820191505090505b509050836020820152600060059050610cc988888484611587565b5050610d18565b610cd8611c2a565b610ce28787611605565b9050600580811115610cf057fe5b81604001516005811115610d0057fe5b1415610d1657610d138160200151611775565b91505b505b610d23868686611782565b5094509492505050565b80600060015490506000600254600560008573ffffffffffffffffffffffffffffffffffffffff1673ffffffffffffffffffffffffffffffffffffffff1681526020019081526020016000206003015401905080431015610d935743810360020a820291505b813410151515610da257600080fd5b34600560008673ffffffffffffffffffffffffffffffffffffffff1673ffffffffffffffffffffffffffffffffffffffff16815260200190815260200160002060020181905550610df38585610ede565b505050505050565b80600060015490506000600254600560008573ffffffffffffffffffffffffffffffffffffffff1673ffffffffffffffffffffffffffffffffffffffff1681526020019081526020016000206003015401905080431015610e615743810360020a820291505b813410151515610e7057600080fd5b34600560008673ffffffffffffffffffffffffffffffffffffffff1673ffffffffffffffffffffffffffffffffffffffff16815260200190815260200160002060020181905550610ec2868686611782565b50505050505050565b600360009054906101000a900460ff1681565b6000610eef83600060010284611782565b905092915050565b600080610f048585610fef565b9050610f0f83611972565b15610f1e576000915050610fe8565b610f2781611313565b15610f3f57610f358161139d565b6002915050610fe8565b8273ffffffffffffffffffffffffffffffffffffffff168173ffffffffffffffffffffffffffffffffffffffff16141515610fe2576040517f08c379a000000000000000000000000000000000000000000000000000000000815260040180806020018281038252601b8152602001807f637572724c6f636b65722068617320746f206265206c6f636b6572000000000081525060200191505060405180910390fd5b60009150505b9392505050565b600080610ffb846119aa565b905060046000828152602001908152602001600020600001600084815260200190815260200160002060000160009054906101000a900473ffffffffffffffffffffffffffffffffffffffff1691505092915050565b60008061105d836119aa565b90506006600082815260200190815260200160002054915050919050565b6000806110c76040805190810160405280600481526020017f64617461000000000000000000000000000000000000000000000000000000008152506110c0866119aa565b3386610c49565b80925081935050506002808111156110db57fe5b8260028111156110e757fe5b1415611236578060066000866040516020018082805190602001908083835b60208310151561112b5780518252602082019150602081019050602083039250611106565b6001836020036101000a038019825116818451168082178552505050505050905001915050604051602081830303815290604052805190602001208152602001908152602001600020819055507f6e824daf97dfe1a7f90ab3313916f3f739e6cd59a67f398c35736d7c65162e6a60066000866040516020018082805190602001908083835b6020831015156111d657805182526020820191506020810190506020830392506111b1565b6001836020036101000a038019825116818451168082178552505050505050905001915050604051602081830303815290604052805190602001208152602001908152602001600020546040518082815260200191505060405180910390a15b8260066000866040516020018082805190602001908083835b602083101515611274578051825260208201915060208101905060208303925061124f565b6001836020036101000a0380198251168184511680821785525050505050509050019150506040516020818303038152906040528051906020012081526020019081526020016000208190555050505050565b6000600560008373ffffffffffffffffffffffffffffffffffffffff1673ffffffffffffffffffffffffffffffffffffffff168152602001908152602001600020600101549050919050565b600043600560008473ffffffffffffffffffffffffffffffffffffffff1673ffffffffffffffffffffffffffffffffffffffff16815260200190815260200160002060010154109050919050565b60056020528060005260406000206000915090508060010154908060020154908060030154905083565b60015481565b60075481565b60005481565b6060600560008373ffffffffffffffffffffffffffffffffffffffff1673ffffffffffffffffffffffffffffffffffffffff168152602001908152602001600020600001805480602002602001604051908101604052809291908181526020016000905b8282101561144757838290600052602060002090600202016040805190810160405290816000820154815260200160018201548152505081526020019060010190611401565b50505050905060008090505b815181101561149e57611464611c6d565b828281518110151561147257fe5b90602001906020020151905061149081600001518260200151611a27565b508080600101915050611453565b5043600560008473ffffffffffffffffffffffffffffffffffffffff1673ffffffffffffffffffffffffffffffffffffffff16815260200190815260200160002060030181905550600560008373ffffffffffffffffffffffffffffffffffffffff1673ffffffffffffffffffffffffffffffffffffffff16815260200190815260200160002060000160006115349190611c8d565b600560008373ffffffffffffffffffffffffffffffffffffffff1673ffffffffffffffffffffffffffffffffffffffff1681526020019081526020016000206001016000905561158382611a78565b5050565b6000611592856119aa565b905060006004600083815260200190815260200160002060000160008681526020019081526020016000209050838160010190805190602001906115d7929190611cb1565b50828160020160006101000a81548160ff021916908360058111156115f857fe5b0217905550505050505050565b61160d611c2a565b6004600061161a856119aa565b81526020019081526020016000206000016000838152602001908152602001600020606060405190810160405290816000820160009054906101000a900473ffffffffffffffffffffffffffffffffffffffff1673ffffffffffffffffffffffffffffffffffffffff1673ffffffffffffffffffffffffffffffffffffffff168152602001600182018054600181600116156101000203166002900480601f0160208091040260200160405190810160405280929190818152602001828054600181600116156101000203166002900480156117375780601f1061170c57610100808354040283529160200191611737565b820191906000526020600020905b81548152906001019060200180831161171a57829003601f168201915b505050505081526020016002820160009054906101000a900460ff16600581111561175e57fe5b600581111561176957fe5b81525050905092915050565b6000808201519050919050565b60008061178e856119aa565b90508273ffffffffffffffffffffffffffffffffffffffff1660046000838152602001908152602001600020600001600086815260200190815260200160002060000160009054906101000a900473ffffffffffffffffffffffffffffffffffffffff1673ffffffffffffffffffffffffffffffffffffffff16141561181857600191505061196b565b8260046000838152602001908152602001600020600001600086815260200190815260200160002060000160006101000a81548173ffffffffffffffffffffffffffffffffffffffff021916908373ffffffffffffffffffffffffffffffffffffffff160217905550600560008473ffffffffffffffffffffffffffffffffffffffff1673ffffffffffffffffffffffffffffffffffffffff1681526020019081526020016000206000016040805190810160405280838152602001868152509080600181540180825580915050906001820390600052602060002090600202016000909192909190915060008201518160000155602082015181600101555050506000544301600560008573ffffffffffffffffffffffffffffffffffffffff1673ffffffffffffffffffffffffffffffffffffffff1681526020019081526020016000206001018190555060019150505b9392505050565b60008073ffffffffffffffffffffffffffffffffffffffff168273ffffffffffffffffffffffffffffffffffffffff16149050919050565b6000816040516020018082805190602001908083835b6020831015156119e557805182526020820191506020810190506020830392506119c0565b6001836020036101000a038019825116818451168082178552505050505050905001915050604051602081830303815290604052805190602001209050919050565b60046000838152602001908152602001600020600001600082815260200190815260200160002060000160006101000a81549073ffffffffffffffffffffffffffffffffffffffff02191690555050565b6000600560008373ffffffffffffffffffffffffffffffffffffffff1673ffffffffffffffffffffffffffffffffffffffff168152602001908152602001600020600201549050600360009054906101000a900460ff1615611ae157611ade8282611b72565b90505b8173ffffffffffffffffffffffffffffffffffffffff166108fc829081150290604051600060405180830381858888f19350505050158015611b27573d6000803e3d6000fd5b50600560008373ffffffffffffffffffffffffffffffffffffffff1673ffffffffffffffffffffffffffffffffffffffff168152602001908152602001600020600201600090555050565b600080600560008573ffffffffffffffffffffffffffffffffffffffff1673ffffffffffffffffffffffffffffffffffffffff168152602001908152602001600020600101549050600560008573ffffffffffffffffffffffffffffffffffffffff1673ffffffffffffffffffffffffffffffffffffffff16815260200190815260200160002060010154431115611c0e576000915050611c24565b6000544382038402811515611c1f57fe5b049150505b92915050565b606060405190810160405280600073ffffffffffffffffffffffffffffffffffffffff1681526020016060815260200160006005811115611c6757fe5b81525090565b604080519081016040528060008019168152602001600080191681525090565b5080546000825560020290600052602060002090810190611cae9190611d31565b50565b828054600181600116156101000203166002900490600052602060002090601f016020900481019282601f10611cf257805160ff1916838001178555611d20565b82800160010185558215611d20579182015b82811115611d1f578251825591602001919060010190611d04565b5b509050611d2d9190611d60565b5090565b611d5d91905b80821115611d5957600080820160009055600182016000905550600201611d37565b5090565b90565b611d8291905b80821115611d7e576000816000905550600101611d66565b5090565b9056fea165627a7a72305820cd9bedc057cc5e15118160b1e50d577d99456fb967a23addf7dd22922453051c0029",
  "source": "pragma solidity ^0.5.0;\n\nimport \"./LockableWithDataRevert.sol\";\n\ncontract ExampleWithRevert is LockableWithDataRevert{\n\n    mapping(bytes32 => uint256) public data;\n    uint256 public single;\n    \n    event Dismounted(uint256 data);\n\n\n    function getData(string memory location) view public returns (uint256) {\n        bytes32 hashKey = getHashKey(location);\n        return data[hashKey];\n    }\n\n    function setData(string memory key, uint256 value) \n    public payable \n    {\n       //require(!isLocked(\"data\", getHashKey(key), msg.sender), \"data is locked and msg.sender is not locker\");\n       LockStatus lockStatus;\n       uint256 revertData;\n       (lockStatus, revertData) = lockWithRevertUint(\"data\", getHashKey(key), msg.sender, value);\n       if(lockStatus == LockStatus.UserWithRevert) {\n           data[keccak256(abi.encodePacked(key))] = revertData;\n           emit Dismounted(data[keccak256(abi.encodePacked(key))]);\n       }\n       \n       data[keccak256(abi.encodePacked(key))] = value;\n           \n       \n        \n    }\n\n    \n\n    \n   \n    function release(address payable locker)\n    public\n    {\n        unlock(locker);\n    }\n    \n\n}",
  "sourcePath": "/Users/jakegsy/Documents/Yale-NUS/capstone/lock/contracts/ExampleWithRevert.sol",
  "compiler": {
    "name": "solc",
    "version": "0.5.1+commit.c8a2cb62.Emscripten.clang"
  },
  "schemaVersion": "3.0.0-beta.2",
  "updatedAt": "2019-01-31T13:31:49.435Z",
  "devdoc": {
    "methods": {}
  },
  "userdoc": {
    "methods": {}
  }
}