{
  "contractName": "Example",
  "abi": [
    {
      "constant": true,
      "inputs": [],
      "name": "maxLocksPerSession",
      "outputs": [
        {
          "name": "",
          "type": "uint256"
        }
      ],
      "payable": false,
      "stateMutability": "view",
      "type": "function"
    },
    {
      "constant": false,
      "inputs": [
        {
          "name": "locker",
          "type": "address"
        }
      ],
      "name": "unlock",
      "outputs": [],
      "payable": false,
      "stateMutability": "nonpayable",
      "type": "function"
    },
    {
      "constant": true,
      "inputs": [
        {
          "name": "locker",
          "type": "address"
        }
      ],
      "name": "isSessionExpired",
      "outputs": [
        {
          "name": "",
          "type": "bool"
        }
      ],
      "payable": false,
      "stateMutability": "view",
      "type": "function"
    },
    {
      "constant": true,
      "inputs": [],
      "name": "whitelistFee",
      "outputs": [
        {
          "name": "",
          "type": "uint256"
        }
      ],
      "payable": false,
      "stateMutability": "view",
      "type": "function"
    },
    {
      "constant": true,
      "inputs": [
        {
          "name": "",
          "type": "bytes32"
        }
      ],
      "name": "dynamic",
      "outputs": [
        {
          "name": "",
          "type": "uint256"
        }
      ],
      "payable": false,
      "stateMutability": "view",
      "type": "function"
    },
    {
      "constant": false,
      "inputs": [
        {
          "name": "locker",
          "type": "address"
        }
      ],
      "name": "refundWhitelist",
      "outputs": [],
      "payable": false,
      "stateMutability": "nonpayable",
      "type": "function"
    },
    {
      "constant": false,
      "inputs": [
        {
          "name": "locker",
          "type": "address"
        }
      ],
      "name": "registerWhitelist",
      "outputs": [],
      "payable": true,
      "stateMutability": "payable",
      "type": "function"
    },
    {
      "constant": true,
      "inputs": [],
      "name": "depositFee",
      "outputs": [
        {
          "name": "",
          "type": "uint256"
        }
      ],
      "payable": false,
      "stateMutability": "view",
      "type": "function"
    },
    {
      "constant": true,
      "inputs": [],
      "name": "whitelistRefundPeriod",
      "outputs": [
        {
          "name": "",
          "type": "uint256"
        }
      ],
      "payable": false,
      "stateMutability": "view",
      "type": "function"
    },
    {
      "constant": true,
      "inputs": [],
      "name": "lockSessionPeriod",
      "outputs": [
        {
          "name": "",
          "type": "uint256"
        }
      ],
      "payable": false,
      "stateMutability": "view",
      "type": "function"
    },
    {
      "constant": true,
      "inputs": [],
      "name": "scaleDeposit",
      "outputs": [
        {
          "name": "",
          "type": "bool"
        }
      ],
      "payable": false,
      "stateMutability": "view",
      "type": "function"
    },
    {
      "constant": true,
      "inputs": [],
      "name": "coolOffPeriod",
      "outputs": [
        {
          "name": "",
          "type": "uint256"
        }
      ],
      "payable": false,
      "stateMutability": "view",
      "type": "function"
    },
    {
      "constant": true,
      "inputs": [],
      "name": "whitelistPeriod",
      "outputs": [
        {
          "name": "",
          "type": "uint256"
        }
      ],
      "payable": false,
      "stateMutability": "view",
      "type": "function"
    },
    {
      "constant": true,
      "inputs": [
        {
          "name": "",
          "type": "address"
        }
      ],
      "name": "userRecords",
      "outputs": [
        {
          "name": "expiry",
          "type": "uint256"
        },
        {
          "name": "deposit",
          "type": "uint256"
        },
        {
          "name": "lastLockTime",
          "type": "uint256"
        },
        {
          "name": "registered",
          "type": "uint256"
        }
      ],
      "payable": false,
      "stateMutability": "view",
      "type": "function"
    },
    {
      "constant": true,
      "inputs": [],
      "name": "single",
      "outputs": [
        {
          "name": "",
          "type": "uint256"
        }
      ],
      "payable": false,
      "stateMutability": "view",
      "type": "function"
    },
    {
      "constant": true,
      "inputs": [
        {
          "name": "dataHashKey",
          "type": "bytes32"
        },
        {
          "name": "dataKey",
          "type": "bytes32"
        }
      ],
      "name": "getCurrLocker",
      "outputs": [
        {
          "name": "",
          "type": "address"
        }
      ],
      "payable": false,
      "stateMutability": "view",
      "type": "function"
    },
    {
      "inputs": [
        {
          "name": "_timeout",
          "type": "uint256"
        },
        {
          "name": "_depositFee",
          "type": "uint256"
        },
        {
          "name": "_coolingOff",
          "type": "uint256"
        },
        {
          "name": "_scaleDeposit",
          "type": "bool"
        },
        {
          "name": "_whitelistFee",
          "type": "uint256"
        },
        {
          "name": "_whitelistPeriod",
          "type": "uint256"
        },
        {
          "name": "_whitelistRefundPeriod",
          "type": "uint256"
        }
      ],
      "payable": false,
      "stateMutability": "nonpayable",
      "type": "constructor"
    },
    {
      "constant": true,
      "inputs": [
        {
          "name": "location",
          "type": "string"
        }
      ],
      "name": "getData",
      "outputs": [
        {
          "name": "",
          "type": "uint256"
        }
      ],
      "payable": false,
      "stateMutability": "view",
      "type": "function"
    },
    {
      "constant": false,
      "inputs": [
        {
          "name": "key",
          "type": "string"
        },
        {
          "name": "value",
          "type": "uint256"
        }
      ],
      "name": "setDynamic",
      "outputs": [],
      "payable": true,
      "stateMutability": "payable",
      "type": "function"
    },
    {
      "constant": false,
      "inputs": [
        {
          "name": "value",
          "type": "uint256"
        }
      ],
      "name": "setSingle",
      "outputs": [],
      "payable": true,
      "stateMutability": "payable",
      "type": "function"
    },
    {
      "constant": false,
      "inputs": [
        {
          "name": "locker",
          "type": "address"
        }
      ],
      "name": "release",
      "outputs": [],
      "payable": false,
      "stateMutability": "nonpayable",
      "type": "function"
    }
  ],
  "bytecode": "0x6080604052600a600055600260005402600155601e6002556002805402600355662386f26fc10000600455670de0b6b3a7640000600555600a6006556001600760006101000a81548160ff02191690831515021790555034801561006257600080fd5b5060405160e080611a4b833981018060405260e081101561008257600080fd5b810190808051906020019092919080519060200190929190805190602001909291908051906020019092919080519060200190929190805190602001909291908051906020019092919050505086600081905550856004819055508460018190555083600760006101000a81548160ff02191690831515021790555082600581905550816002819055508060038190555050505050505050611922806101296000396000f3fe60806040526004361061010c576000357c0100000000000000000000000000000000000000000000000000000000900480630309eb6d14610111578063050856b31461013c578063191655871461016a5780632f6c493c146101bb578063398d536c1461020c5780633dd69636146102755780633e1d911f146102a057806355c8153d146102ef578063611f4a2b1461034057806367a52793146103845780636f25cac8146103af578063a21feed2146103da578063a4e9b0bd14610405578063a99013cb14610434578063abb6154f146104f9578063ae55c88814610524578063b48e665e14610600578063dabd2c801461062b578063de3e828e146106a5578063f3a34e69146106d0575b600080fd5b34801561011d57600080fd5b50610126610755565b6040518082815260200191505060405180910390f35b6101686004803603602081101561015257600080fd5b810190808035906020019092919050505061075b565b005b34801561017657600080fd5b506101b96004803603602081101561018d57600080fd5b81019080803573ffffffffffffffffffffffffffffffffffffffff1690602001909291905050506107aa565b005b3480156101c757600080fd5b5061020a600480360360208110156101de57600080fd5b81019080803573ffffffffffffffffffffffffffffffffffffffff1690602001909291905050506107b6565b005b34801561021857600080fd5b5061025b6004803603602081101561022f57600080fd5b81019080803573ffffffffffffffffffffffffffffffffffffffff1690602001909291905050506109ae565b604051808215151515815260200191505060405180910390f35b34801561028157600080fd5b5061028a6109fc565b6040518082815260200191505060405180910390f35b3480156102ac57600080fd5b506102d9600480360360208110156102c357600080fd5b8101908080359060200190929190505050610a02565b6040518082815260200191505060405180910390f35b3480156102fb57600080fd5b5061033e6004803603602081101561031257600080fd5b81019080803573ffffffffffffffffffffffffffffffffffffffff169060200190929190505050610a1a565b005b6103826004803603602081101561035657600080fd5b81019080803573ffffffffffffffffffffffffffffffffffffffff169060200190929190505050610c73565b005b34801561039057600080fd5b50610399610d37565b6040518082815260200191505060405180910390f35b3480156103bb57600080fd5b506103c4610d3d565b6040518082815260200191505060405180910390f35b3480156103e657600080fd5b506103ef610d43565b6040518082815260200191505060405180910390f35b34801561041157600080fd5b5061041a610d49565b604051808215151515815260200191505060405180910390f35b6104f76004803603604081101561044a57600080fd5b810190808035906020019064010000000081111561046757600080fd5b82018360208201111561047957600080fd5b8035906020019184600183028401116401000000008311171561049b57600080fd5b91908080601f016020809104026020016040519081016040528093929190818152602001838380828437600081840152601f19601f82011690508083019250505050505050919291929080359060200190929190505050610d5c565b005b34801561050557600080fd5b5061050e610e36565b6040518082815260200191505060405180910390f35b34801561053057600080fd5b506105ea6004803603602081101561054757600080fd5b810190808035906020019064010000000081111561056457600080fd5b82018360208201111561057657600080fd5b8035906020019184600183028401116401000000008311171561059857600080fd5b91908080601f016020809104026020016040519081016040528093929190818152602001838380828437600081840152601f19601f820116905080830192505050505050509192919290505050610e3c565b6040518082815260200191505060405180910390f35b34801561060c57600080fd5b50610615610e66565b6040518082815260200191505060405180910390f35b34801561063757600080fd5b5061067a6004803603602081101561064e57600080fd5b81019080803573ffffffffffffffffffffffffffffffffffffffff169060200190929190505050610e6c565b6040518085815260200184815260200183815260200182815260200194505050505060405180910390f35b3480156106b157600080fd5b506106ba610e9c565b6040518082815260200191505060405180910390f35b3480156106dc57600080fd5b50610713600480360360408110156106f357600080fd5b810190808035906020019092919080359060200190929190505050610ea2565b604051808273ffffffffffffffffffffffffffffffffffffffff1673ffffffffffffffffffffffffffffffffffffffff16815260200191505060405180910390f35b60065481565b6040805190810160405280600681526020017f73696e676c65000000000000000000000000000000000000000000000000000081525061079f816000600102610ef4565b81600b819055505050565b6107b38161100c565b50565b6060600960008373ffffffffffffffffffffffffffffffffffffffff1673ffffffffffffffffffffffffffffffffffffffff168152602001908152602001600020600001805480602002602001604051908101604052809291908181526020016000905b828210156108605783829060005260206000209060020201604080519081016040529081600082015481526020016001820154815250508152602001906001019061081a565b50505050905060008090505b81518110156108b75761087d611883565b828281518110151561088b57fe5b9060200190602002015190506108a9816000015182602001516110fc565b50808060010191505061086c565b50600960008373ffffffffffffffffffffffffffffffffffffffff1673ffffffffffffffffffffffffffffffffffffffff168152602001908152602001600020600001600061090691906118a3565b600960008373ffffffffffffffffffffffffffffffffffffffff1673ffffffffffffffffffffffffffffffffffffffff1681526020019081526020016000206001016000905561095461114a565b156109aa5743600960008473ffffffffffffffffffffffffffffffffffffffff1673ffffffffffffffffffffffffffffffffffffffff168152602001908152602001600020600301819055506109a982611156565b5b5050565b600043600960008473ffffffffffffffffffffffffffffffffffffffff1673ffffffffffffffffffffffffffffffffffffffff16815260200190815260200160002060010154109050919050565b60055481565b600a6020528060005260406000206000915090505481565b6000600960008373ffffffffffffffffffffffffffffffffffffffff1673ffffffffffffffffffffffffffffffffffffffff1681526020019081526020016000206004015414151515610afb576040517f08c379a000000000000000000000000000000000000000000000000000000000815260040180806020018281038252602a8152602001807f75736572206973206e6f7420726567697374657265642c20746865726520697381526020017f206e6f20726566756e640000000000000000000000000000000000000000000081525060400191505060405180910390fd5b43600354600960008473ffffffffffffffffffffffffffffffffffffffff1673ffffffffffffffffffffffffffffffffffffffff168152602001908152602001600020600401540111151515610bdf576040517f08c379a000000000000000000000000000000000000000000000000000000000815260040180806020018281038252602c8152602001807f77686974656c69737420726566756e6420706572696f6420686173206e6f742081526020017f6265656e2072656163686564000000000000000000000000000000000000000081525060400191505060405180910390fd5b6000600960008373ffffffffffffffffffffffffffffffffffffffff1673ffffffffffffffffffffffffffffffffffffffff168152602001908152602001600020600401819055508073ffffffffffffffffffffffffffffffffffffffff166108fc6005549081150290604051600060405180830381858888f19350505050158015610c6f573d6000803e3d6000fd5b5050565b6005543410151515610ced576040517f08c379a000000000000000000000000000000000000000000000000000000000815260040180806020018281038252601a8152602001807f696e73756666696369656e742077686974656c6973742066656500000000000081525060200191505060405180910390fd5b43600960008373ffffffffffffffffffffffffffffffffffffffff1673ffffffffffffffffffffffffffffffffffffffff1681526020019081526020016000206004018190555050565b60045481565b60035481565b60005481565b600760009054906101000a900460ff1681565b6040805190810160405280600781526020017f64796e616d696300000000000000000000000000000000000000000000000000815250610d9b83611250565b610da58282610ef4565b82600a6000866040516020018082805190602001908083835b602083101515610de35780518252602082019150602081019050602083039250610dbe565b6001836020036101000a0380198251168184511680821785525050505050509050019150506040516020818303038152906040528051906020012081526020019081526020016000208190555050505050565b60015481565b600080610e4883611250565b9050600a600082815260200190815260200160002054915050919050565b60025481565b60096020528060005260406000206000915090508060010154908060020154908060030154908060040154905084565b600b5481565b600060086000848152602001908152602001600020600001600083815260200190815260200160002060009054906101000a900473ffffffffffffffffffffffffffffffffffffffff16905092915050565b60003390506000610f0484611250565b90506000610f138285856112cd565b905060006003811115610f2257fe5b816003811115610f2e57fe5b14151515610fa4576040517f08c379a00000000000000000000000000000000000000000000000000000000081526004018080602001828103825260188152602001807f646174612069732063757272656e746c79206c6f636b6564000000000000000081525060200191505060405180910390fd5b60026003811115610fb157fe5b816003811115610fbd57fe5b1415610fcb57505050611008565b610fd361114a565b15610fe257610fe183611357565b5b610fea6113fe565b15610ff957610ff88361140a565b5b6110048285856114cb565b5050505b5050565b611015816107b6565b43600960008373ffffffffffffffffffffffffffffffffffffffff1673ffffffffffffffffffffffffffffffffffffffff16815260200190815260200160002060030181905550600960008273ffffffffffffffffffffffffffffffffffffffff1673ffffffffffffffffffffffffffffffffffffffff16815260200190815260200160002060000160006110aa91906118a3565b600960008273ffffffffffffffffffffffffffffffffffffffff1673ffffffffffffffffffffffffffffffffffffffff168152602001908152602001600020600101600090556110f981611156565b50565b60086000838152602001908152602001600020600001600082815260200190815260200160002060006101000a81549073ffffffffffffffffffffffffffffffffffffffff02191690555050565b60008060045411905090565b6000600960008373ffffffffffffffffffffffffffffffffffffffff1673ffffffffffffffffffffffffffffffffffffffff168152602001908152602001600020600201549050600760009054906101000a900460ff16156111bf576111bc8282611541565b90505b8173ffffffffffffffffffffffffffffffffffffffff166108fc829081150290604051600060405180830381858888f19350505050158015611205573d6000803e3d6000fd5b50600960008373ffffffffffffffffffffffffffffffffffffffff1673ffffffffffffffffffffffffffffffffffffffff168152602001908152602001600020600201600090555050565b6000816040516020018082805190602001908083835b60208310151561128b5780518252602082019150602081019050602083039250611266565b6001836020036101000a038019825116818451168082178552505050505050905001915050604051602081830303815290604052805190602001209050919050565b6000806112da8585610ea2565b90506112e5816115b7565b156112f4576003915050611350565b6112fd816109ae565b1561130c576001915050611350565b8273ffffffffffffffffffffffffffffffffffffffff168173ffffffffffffffffffffffffffffffffffffffff16141561134a576002915050611350565b60009150505b9392505050565b611360816109ae565b151561136b576113fb565b6000611376826115ef565b90508034101515156113f0576040517f08c379a00000000000000000000000000000000000000000000000000000000081526004018080602001828103825260148152602001807f696e73756666696369656e74206465706f73697400000000000000000000000081525060200191505060405180910390fd5b6113f98261165f565b505b50565b60008060055411905090565b43600254600960008473ffffffffffffffffffffffffffffffffffffffff1673ffffffffffffffffffffffffffffffffffffffff1681526020019081526020016000206004015401101515156114c8576040517f08c379a00000000000000000000000000000000000000000000000000000000081526004018080602001828103825260188152602001807f726567697374726174696f6e206861732065787069726564000000000000000081525060200191505060405180910390fd5b50565b6114d68383836116f4565b8060086000858152602001908152602001600020600001600084815260200190815260200160002060006101000a81548173ffffffffffffffffffffffffffffffffffffffff021916908373ffffffffffffffffffffffffffffffffffffffff160217905550505050565b600061154c836109ae565b1561155a57600090506115b1565b60005443600960008673ffffffffffffffffffffffffffffffffffffffff1673ffffffffffffffffffffffffffffffffffffffff168152602001908152602001600020600101540383028115156115ad57fe5b0490505b92915050565b60008073ffffffffffffffffffffffffffffffffffffffff168273ffffffffffffffffffffffffffffffffffffffff16149050919050565b60008060045490506000600154600960008673ffffffffffffffffffffffffffffffffffffffff1673ffffffffffffffffffffffffffffffffffffffff16815260200190815260200160002060030154019050804310156116555743810360020a820291505b8192505050919050565b34600960008373ffffffffffffffffffffffffffffffffffffffff1673ffffffffffffffffffffffffffffffffffffffff168152602001908152602001600020600201819055506000544301600960008373ffffffffffffffffffffffffffffffffffffffff1673ffffffffffffffffffffffffffffffffffffffff1681526020019081526020016000206001018190555050565b600654600960008373ffffffffffffffffffffffffffffffffffffffff1673ffffffffffffffffffffffffffffffffffffffff16815260200190815260200160002060000180549050111515156117d9576040517f08c379a00000000000000000000000000000000000000000000000000000000081526004018080602001828103825260228152602001807f6c6f636b657220686173206d6178696d756d206e756d626572206f66206c6f6381526020017f6b7300000000000000000000000000000000000000000000000000000000000081525060400191505060405180910390fd5b6117e1611883565b6040805190810160405280858152602001848152509050600960008373ffffffffffffffffffffffffffffffffffffffff1673ffffffffffffffffffffffffffffffffffffffff1681526020019081526020016000206000018190806001815401808255809150509060018203906000526020600020906002020160009091929091909150600082015181600001556020820151816001015550505050505050565b604080519081016040528060008019168152602001600080191681525090565b50805460008255600202906000526020600020908101906118c491906118c7565b50565b6118f391905b808211156118ef576000808201600090556001820160009055506002016118cd565b5090565b9056fea165627a7a72305820ce4091c4e7a692a2150163b3c3fe99dcd91e959821adca3f225dff48859938af0029",
  "source": "pragma solidity ^0.5.0;\n\nimport \"./Lockable.sol\";\n\ncontract Example is Lockable{\n\n    mapping(bytes32 => uint256) public dynamic;\n    uint256 public single;\n    \n\n\n    constructor(uint _timeout, uint _depositFee, uint _coolingOff, bool _scaleDeposit,\n                uint _whitelistFee, uint _whitelistPeriod, uint _whitelistRefundPeriod)\n    public\n    {\n        lockSessionPeriod = _timeout;\n        depositFee = _depositFee;\n        coolOffPeriod = _coolingOff;\n        scaleDeposit = _scaleDeposit;\n        whitelistFee = _whitelistFee;\n        whitelistPeriod = _whitelistPeriod;\n        whitelistRefundPeriod = _whitelistRefundPeriod;\n    }\n\n\n\n    function getData(string memory location) view public returns (uint256) {\n        bytes32 hashKey = getHashKey(location);\n        return dynamic[hashKey];\n    }\n\n    function setDynamic(string memory key, uint256 value)\n    public \n    payable \n    synchronizedDynamic(\"dynamic\", getHashKey(key))\n    {\n       dynamic[keccak256(abi.encodePacked(key))] = value;\n    }\n\n    function setSingle(uint256 value)\n    public \n    payable \n    synchronized(\"single\")\n    {\n       single = value;\n    }\n    \n   \n    function release(address payable locker)\n    public\n    {\n        unlockWithDeposit(locker);\n    }\n    \n\n}",
  "sourcePath": "/Users/jakegsy/Documents/Yale-NUS/capstone/lock/contracts/Example.sol",
  "compiler": {
    "name": "solc",
    "version": "0.5.1+commit.c8a2cb62.Emscripten.clang"
  },
  "schemaVersion": "3.0.0-beta.2",
  "updatedAt": "2019-02-28T14:12:37.700Z",
  "devdoc": {
    "methods": {}
  },
  "userdoc": {
    "methods": {}
  }
}