{
  "contractName": "Lockable",
  "abi": [
    {
      "constant": true,
      "inputs": [],
      "name": "maxLocksPerSession",
      "outputs": [
        {
          "name": "",
          "type": "uint256"
        }
      ],
      "payable": false,
      "stateMutability": "view",
      "type": "function"
    },
    {
      "constant": true,
      "inputs": [],
      "name": "whitelistFee",
      "outputs": [
        {
          "name": "",
          "type": "uint256"
        }
      ],
      "payable": false,
      "stateMutability": "view",
      "type": "function"
    },
    {
      "constant": true,
      "inputs": [],
      "name": "depositFee",
      "outputs": [
        {
          "name": "",
          "type": "uint256"
        }
      ],
      "payable": false,
      "stateMutability": "view",
      "type": "function"
    },
    {
      "constant": true,
      "inputs": [],
      "name": "whitelistRefundPeriod",
      "outputs": [
        {
          "name": "",
          "type": "uint256"
        }
      ],
      "payable": false,
      "stateMutability": "view",
      "type": "function"
    },
    {
      "constant": true,
      "inputs": [],
      "name": "lockSessionPeriod",
      "outputs": [
        {
          "name": "",
          "type": "uint256"
        }
      ],
      "payable": false,
      "stateMutability": "view",
      "type": "function"
    },
    {
      "constant": true,
      "inputs": [],
      "name": "scaleDeposit",
      "outputs": [
        {
          "name": "",
          "type": "bool"
        }
      ],
      "payable": false,
      "stateMutability": "view",
      "type": "function"
    },
    {
      "constant": true,
      "inputs": [],
      "name": "coolOffPeriod",
      "outputs": [
        {
          "name": "",
          "type": "uint256"
        }
      ],
      "payable": false,
      "stateMutability": "view",
      "type": "function"
    },
    {
      "constant": true,
      "inputs": [],
      "name": "whitelistPeriod",
      "outputs": [
        {
          "name": "",
          "type": "uint256"
        }
      ],
      "payable": false,
      "stateMutability": "view",
      "type": "function"
    },
    {
      "constant": true,
      "inputs": [
        {
          "name": "",
          "type": "address"
        }
      ],
      "name": "userRecords",
      "outputs": [
        {
          "name": "expiry",
          "type": "uint256"
        },
        {
          "name": "deposit",
          "type": "uint256"
        },
        {
          "name": "lastLockTime",
          "type": "uint256"
        },
        {
          "name": "registered",
          "type": "uint256"
        }
      ],
      "payable": false,
      "stateMutability": "view",
      "type": "function"
    },
    {
      "constant": false,
      "inputs": [
        {
          "name": "locker",
          "type": "address"
        }
      ],
      "name": "unlock",
      "outputs": [],
      "payable": false,
      "stateMutability": "nonpayable",
      "type": "function"
    },
    {
      "constant": false,
      "inputs": [
        {
          "name": "locker",
          "type": "address"
        }
      ],
      "name": "registerWhitelist",
      "outputs": [],
      "payable": true,
      "stateMutability": "payable",
      "type": "function"
    },
    {
      "constant": false,
      "inputs": [
        {
          "name": "locker",
          "type": "address"
        }
      ],
      "name": "refundWhitelist",
      "outputs": [],
      "payable": false,
      "stateMutability": "nonpayable",
      "type": "function"
    },
    {
      "constant": true,
      "inputs": [
        {
          "name": "dataHashKey",
          "type": "bytes32"
        },
        {
          "name": "dataKey",
          "type": "bytes32"
        }
      ],
      "name": "getCurrLocker",
      "outputs": [
        {
          "name": "",
          "type": "address"
        }
      ],
      "payable": false,
      "stateMutability": "view",
      "type": "function"
    },
    {
      "constant": true,
      "inputs": [
        {
          "name": "locker",
          "type": "address"
        }
      ],
      "name": "isSessionExpired",
      "outputs": [
        {
          "name": "",
          "type": "bool"
        }
      ],
      "payable": false,
      "stateMutability": "view",
      "type": "function"
    }
  ],
  "bytecode": "0x6080604052600a600055600260005402600155601e6002556002805402600355662386f26fc10000600455670de0b6b3a7640000600555600a6006556001600760006101000a81548160ff02191690831515021790555034801561006257600080fd5b50610d04806100726000396000f3fe6080604052600436106100ca576000357c0100000000000000000000000000000000000000000000000000000000900480630309eb6d146100cf5780632f6c493c146100fa578063398d536c1461014b5780633dd69636146101b457806355c8153d146101df578063611f4a2b1461023057806367a52793146102745780636f25cac81461029f578063a21feed2146102ca578063a4e9b0bd146102f5578063abb6154f14610324578063b48e665e1461034f578063dabd2c801461037a578063f3a34e69146103f4575b600080fd5b3480156100db57600080fd5b506100e4610479565b6040518082815260200191505060405180910390f35b34801561010657600080fd5b506101496004803603602081101561011d57600080fd5b81019080803573ffffffffffffffffffffffffffffffffffffffff16906020019092919050505061047f565b005b34801561015757600080fd5b5061019a6004803603602081101561016e57600080fd5b81019080803573ffffffffffffffffffffffffffffffffffffffff169060200190929190505050610677565b604051808215151515815260200191505060405180910390f35b3480156101c057600080fd5b506101c96106c5565b6040518082815260200191505060405180910390f35b3480156101eb57600080fd5b5061022e6004803603602081101561020257600080fd5b81019080803573ffffffffffffffffffffffffffffffffffffffff1690602001909291905050506106cb565b005b6102726004803603602081101561024657600080fd5b81019080803573ffffffffffffffffffffffffffffffffffffffff169060200190929190505050610924565b005b34801561028057600080fd5b506102896109e8565b6040518082815260200191505060405180910390f35b3480156102ab57600080fd5b506102b46109ee565b6040518082815260200191505060405180910390f35b3480156102d657600080fd5b506102df6109f4565b6040518082815260200191505060405180910390f35b34801561030157600080fd5b5061030a6109fa565b604051808215151515815260200191505060405180910390f35b34801561033057600080fd5b50610339610a0d565b6040518082815260200191505060405180910390f35b34801561035b57600080fd5b50610364610a13565b6040518082815260200191505060405180910390f35b34801561038657600080fd5b506103c96004803603602081101561039d57600080fd5b81019080803573ffffffffffffffffffffffffffffffffffffffff169060200190929190505050610a19565b6040518085815260200184815260200183815260200182815260200194505050505060405180910390f35b34801561040057600080fd5b506104376004803603604081101561041757600080fd5b810190808035906020019092919080359060200190929190505050610a49565b604051808273ffffffffffffffffffffffffffffffffffffffff1673ffffffffffffffffffffffffffffffffffffffff16815260200191505060405180910390f35b60065481565b6060600960008373ffffffffffffffffffffffffffffffffffffffff1673ffffffffffffffffffffffffffffffffffffffff168152602001908152602001600020600001805480602002602001604051908101604052809291908181526020016000905b82821015610529578382906000526020600020906002020160408051908101604052908160008201548152602001600182015481525050815260200190600101906104e3565b50505050905060008090505b815181101561058057610546610c65565b828281518110151561055457fe5b90602001906020020151905061057281600001518260200151610a9b565b508080600101915050610535565b50600960008373ffffffffffffffffffffffffffffffffffffffff1673ffffffffffffffffffffffffffffffffffffffff16815260200190815260200160002060000160006105cf9190610c85565b600960008373ffffffffffffffffffffffffffffffffffffffff1673ffffffffffffffffffffffffffffffffffffffff1681526020019081526020016000206001016000905561061d610ae9565b156106735743600960008473ffffffffffffffffffffffffffffffffffffffff1673ffffffffffffffffffffffffffffffffffffffff1681526020019081526020016000206003018190555061067282610af5565b5b5050565b600043600960008473ffffffffffffffffffffffffffffffffffffffff1673ffffffffffffffffffffffffffffffffffffffff16815260200190815260200160002060010154109050919050565b60055481565b6000600960008373ffffffffffffffffffffffffffffffffffffffff1673ffffffffffffffffffffffffffffffffffffffff16815260200190815260200160002060040154141515156107ac576040517f08c379a000000000000000000000000000000000000000000000000000000000815260040180806020018281038252602a8152602001807f75736572206973206e6f7420726567697374657265642c20746865726520697381526020017f206e6f20726566756e640000000000000000000000000000000000000000000081525060400191505060405180910390fd5b43600354600960008473ffffffffffffffffffffffffffffffffffffffff1673ffffffffffffffffffffffffffffffffffffffff168152602001908152602001600020600401540111151515610890576040517f08c379a000000000000000000000000000000000000000000000000000000000815260040180806020018281038252602c8152602001807f77686974656c69737420726566756e6420706572696f6420686173206e6f742081526020017f6265656e2072656163686564000000000000000000000000000000000000000081525060400191505060405180910390fd5b6000600960008373ffffffffffffffffffffffffffffffffffffffff1673ffffffffffffffffffffffffffffffffffffffff168152602001908152602001600020600401819055508073ffffffffffffffffffffffffffffffffffffffff166108fc6005549081150290604051600060405180830381858888f19350505050158015610920573d6000803e3d6000fd5b5050565b600554341015151561099e576040517f08c379a000000000000000000000000000000000000000000000000000000000815260040180806020018281038252601a8152602001807f696e73756666696369656e742077686974656c6973742066656500000000000081525060200191505060405180910390fd5b43600960008373ffffffffffffffffffffffffffffffffffffffff1673ffffffffffffffffffffffffffffffffffffffff1681526020019081526020016000206004018190555050565b60045481565b60035481565b60005481565b600760009054906101000a900460ff1681565b60015481565b60025481565b60096020528060005260406000206000915090508060010154908060020154908060030154908060040154905084565b600060086000848152602001908152602001600020600001600083815260200190815260200160002060009054906101000a900473ffffffffffffffffffffffffffffffffffffffff16905092915050565b60086000838152602001908152602001600020600001600082815260200190815260200160002060006101000a81549073ffffffffffffffffffffffffffffffffffffffff02191690555050565b60008060045411905090565b6000600960008373ffffffffffffffffffffffffffffffffffffffff1673ffffffffffffffffffffffffffffffffffffffff168152602001908152602001600020600201549050600760009054906101000a900460ff1615610b5e57610b5b8282610bef565b90505b8173ffffffffffffffffffffffffffffffffffffffff166108fc829081150290604051600060405180830381858888f19350505050158015610ba4573d6000803e3d6000fd5b50600960008373ffffffffffffffffffffffffffffffffffffffff1673ffffffffffffffffffffffffffffffffffffffff168152602001908152602001600020600201600090555050565b6000610bfa83610677565b15610c085760009050610c5f565b60005443600960008673ffffffffffffffffffffffffffffffffffffffff1673ffffffffffffffffffffffffffffffffffffffff16815260200190815260200160002060010154038302811515610c5b57fe5b0490505b92915050565b604080519081016040528060008019168152602001600080191681525090565b5080546000825560020290600052602060002090810190610ca69190610ca9565b50565b610cd591905b80821115610cd157600080820160009055600182016000905550600201610caf565b5090565b9056fea165627a7a7230582058a02431c03259358e18f7563a2c8d1d782ca55b3a5b63e76a25a14c714ae6510029",
  "source": "pragma solidity ^0.5.0;\n\ncontract Lockable {\n\n    enum Status {Locked, Expired, Current, Free}\n\n    struct LockRecord {\n        bytes32 data;\n        bytes32 key;\n    }\n    \n    struct LockMap {\n        mapping(bytes32 => address payable) locker;\n    }\n\n    struct UserRecord {\n        LockRecord[] lockRecords;\n        //Deposit and timeout related \n        uint256   expiry;\n        uint256   deposit;\n        uint256   lastLockTime;\n        //Whitelist and registration related\n        uint256   registered;\n    }\n\n    uint public lockSessionPeriod = 10;\n    uint public coolOffPeriod = lockSessionPeriod * 2;\n    uint public whitelistPeriod = 30;\n    uint public whitelistRefundPeriod = whitelistPeriod * 2;\n\n    uint public depositFee = 0.01 ether ;\n    uint public whitelistFee = 1 ether;\n\n    uint public maxLocksPerSession = 10;\n\n    bool public scaleDeposit = true;\n\n    //Takes in name of data structure and returns the LockMap for data structure.\n    mapping(bytes32 => LockMap)  dataRecords;\n    mapping(address => UserRecord) public userRecords;\n\n\n\n\n    function getLockStatus(bytes32 dataHashKey, bytes32 dataKey, address payable locker) internal view returns(Status)\n    {\n        address payable currLocker = getCurrLocker(dataHashKey, dataKey);\n        //if currLocker is 0x0 then it is obviously not locked.\n        if(isZeroAddr(currLocker)) return Status.Free;\n        //Checks if `currLocker` has expired, if so, proceed to unlock everything\n        // if `currLocker` is `locker` with expired lock, will treat as though its a new\n        // lock.\n        if(isSessionExpired(currLocker)){\n            return Status.Expired;\n        }\n        //At this point, currLocker != 0 and !expired, so we require that the\n        //currLocker has to be the locker, else revert all actions.\n        if(currLocker == locker){\n            return Status.Current;\n        }\n        return Status.Locked;\n    }\n    \n    modifier synchronizedDynamic(string memory dataName, bytes32 dataKey) {\n        lockDynamic(dataName, dataKey);\n        _;\n     }\n\n    function lockDynamic(string memory dataName, bytes32 dataKey) internal \n    {\n        address payable locker = msg.sender;\n        bytes32 dataHashKey = getHashKey(dataName);\n        Status lockStatus = getLockStatus(dataHashKey, dataKey, locker);\n\n        require(lockStatus != Status.Locked, \"data is currently locked\");\n\n        //Since timeout has not exceeded, if locker is active there is no need to lock again.\n        if(lockStatus == Status.Current) return;\n\n        if(isDepositType()){\n            checkAndUpdateDeposit(locker);\n        }\n\n        if(isWhitelistType()){\n            isWhitelistExpired(locker);\n        }\n\n        _lock(dataHashKey, dataKey, locker);\n    }\n\n    modifier synchronized(string memory dataName) {\n        lockDynamic(dataName, bytes32(0));\n        _;\n    }\n\n\n    function _lock(bytes32 dataHashKey, bytes32 dataKey, address payable locker) \n    internal \n    {\n        //Add record of lock into address records\n        updateLockRecord(dataHashKey, dataKey, locker);\n        //Set lock onto the key of specific data structure hash key.\n        dataRecords[dataHashKey].locker[dataKey] = locker;\n\n    }\n\n    function updateLockRecord(bytes32 dataHashKey, bytes32 dataKey, address payable locker) internal {\n        require(userRecords[locker].lockRecords.length <= maxLocksPerSession, \"locker has maximum number of locks\");\n        LockRecord memory record = LockRecord({data : dataHashKey, key : dataKey});\n        userRecords[locker].lockRecords.push(record);\n    }\n\n\n    function unlock(address payable locker)\n    public\n    {\n        LockRecord[] memory UserRecords = userRecords[locker].lockRecords;\n        for (uint i = 0; i < UserRecords.length; i++) {\n            LockRecord memory curr = UserRecords[i];\n            _unlock(curr.data, curr.key);   \n        }\n\n        delete userRecords[locker].lockRecords;\n        delete userRecords[locker].expiry;\n\n        if(isDepositType()){\n            userRecords[locker].lastLockTime = block.number;\n            refundDeposit(locker);\n        }\n    }\n    \n\n    // \n    // Deposit and Timeout Related Functions\n    //\n    \n    function updateUserRecordWithDeposit(address payable locker) \n    internal \n    {\n        userRecords[locker].deposit = msg.value;\n        userRecords[locker].expiry = block.number + lockSessionPeriod;\n    }\n\n    function unlockWithDeposit(address payable locker) internal{\n        unlock(locker);\n        userRecords[locker].lastLockTime = block.number;\n        delete userRecords[locker].lockRecords;\n        delete userRecords[locker].expiry;\n        refundDeposit(locker);\n    }\n\n    function refundDeposit(address payable locker)\n    internal\n    {\n        uint256 refund = userRecords[locker].deposit;\n        if(scaleDeposit){\n            refund = calculateScaleRefund(locker, refund);\n        }\n        locker.transfer(refund);\n        delete userRecords[locker].deposit;\n    }\n\n    function checkAndUpdateDeposit(address payable locker) internal\n    {    \n        //To ensure that the locker doesn't pay twice for a deposit that's still valid\n        if(!isSessionExpired(locker)) return;\n        uint256 deposit = calculateDepositFee(locker);\n        require(msg.value >= deposit, \"insufficient deposit\");\n        updateUserRecordWithDeposit(locker);\n    }\n\n    function calculateDepositFee(address payable locker) internal view returns(uint256){\n        uint256 deposit = depositFee;\n        //Calculate what the cooling off time is. If COOLING_OFF is 0, which means that cooling off is switched\n        //off, then it will always be the base deposit of DEPOSIT_FEE.\n        uint256 coolingOffTime = userRecords[locker].lastLockTime + coolOffPeriod;\n        if(block.number < coolingOffTime){\n            deposit *= 2 ** (coolingOffTime - block.number);\n        }\n        return deposit;\n    }\n\n    function calculateScaleRefund(address locker, uint256 deposit)\n    internal view returns(uint256)\n    {\n        if(isSessionExpired(locker)) return 0;\n        return deposit * (userRecords[locker].expiry - block.number) / lockSessionPeriod;\n    }\n    \n    //\n    // END OF DEPOSIT AND TIMEOUT RELATED FUNCTIONS\n    //\n\n    //\n    // WHITELIST RELATED FUNCTIONS\n    //\n\n    function registerWhitelist(address locker) public payable\n    {\n        require(msg.value >= whitelistFee, \"insufficient whitelist fee\");\n        userRecords[locker].registered = block.number;\n    }\n\n    function refundWhitelist(address payable locker) public\n    {\n        require(userRecords[locker].registered != 0, \"user is not registered, there is no refund\");\n        require(userRecords[locker].registered + whitelistRefundPeriod <= block.number, \"whitelist refund period has not been reached\");\n        userRecords[locker].registered = 0;\n        locker.transfer(whitelistFee);\n    }\n\n    //\n    // Helper functions and modifiers\n    //\n    function getHashKey(string memory arb) \n    pure internal returns (bytes32)\n    {\n        return keccak256(abi.encodePacked(arb));\n    }\n\n    function getCurrLocker(bytes32 dataHashKey, bytes32 dataKey) \n    public view returns(address payable){\n        return dataRecords[dataHashKey].locker[dataKey];\n    }\n   \n   \n    function _unlock(bytes32 nameOfDataKey, bytes32 hashKey)\n    private\n    {   \n        delete dataRecords[nameOfDataKey].locker[hashKey];\n    }\n    \n    \n   \n\n    \n    \n\n\n    function isZeroAddr(address payable addr) internal pure returns (bool) {\n        return(addr == address(0));\n    }\n\n    function isSessionExpired(address locker) view public returns(bool)\n    {\n        return(userRecords[locker].expiry < block.number);\n    }\n\n    function isDepositType() internal view returns(bool){\n        return depositFee > 0;\n    }\n\n    function isWhitelistType() internal view returns(bool){\n        return whitelistFee > 0;\n    }\n\n    function isWhitelistExpired(address locker) internal view {\n        require(userRecords[locker].registered + whitelistPeriod >= block.number, \"registration has expired\");\n    }\n\n\n\n\n\n    // DEBUG FUNCTION\n    // function expBlock(address locker) view public returns (uint)\n    // {\n    //     return(userRecords[locker].expiry);\n    // }\n    \n    // function lastLock(address locker) view public returns (uint)\n    // {\n    //     return(userRecords[locker].lastLockTime);\n    // }\n}\n\n",
  "sourcePath": "/Users/jakegsy/Documents/Yale-NUS/capstone/lock/contracts/Lockable.sol",
  "compiler": {
    "name": "solc",
    "version": "0.5.1+commit.c8a2cb62.Emscripten.clang"
  },
  "schemaVersion": "3.0.0-beta.2",
  "updatedAt": "2019-02-28T14:12:37.708Z",
  "devdoc": {
    "methods": {}
  },
  "userdoc": {
    "methods": {}
  }
}