{
  "contractName": "LockableWithDataRevert",
  "abi": [
    {
      "constant": true,
      "inputs": [],
      "name": "COOLING_OFF",
      "outputs": [
        {
          "name": "",
          "type": "uint256"
        }
      ],
      "payable": false,
      "stateMutability": "view",
      "type": "function"
    },
    {
      "constant": true,
      "inputs": [],
      "name": "scaleRefund",
      "outputs": [
        {
          "name": "",
          "type": "bool"
        }
      ],
      "payable": false,
      "stateMutability": "view",
      "type": "function"
    },
    {
      "constant": true,
      "inputs": [
        {
          "name": "",
          "type": "address"
        }
      ],
      "name": "userRecords",
      "outputs": [
        {
          "name": "expiry",
          "type": "uint256"
        },
        {
          "name": "deposit",
          "type": "uint256"
        },
        {
          "name": "lastLockTime",
          "type": "uint256"
        }
      ],
      "payable": false,
      "stateMutability": "view",
      "type": "function"
    },
    {
      "constant": true,
      "inputs": [],
      "name": "DEPOSIT_FEE",
      "outputs": [
        {
          "name": "",
          "type": "uint256"
        }
      ],
      "payable": false,
      "stateMutability": "view",
      "type": "function"
    },
    {
      "constant": true,
      "inputs": [],
      "name": "TIMEOUT",
      "outputs": [
        {
          "name": "",
          "type": "uint256"
        }
      ],
      "payable": false,
      "stateMutability": "view",
      "type": "function"
    },
    {
      "constant": false,
      "inputs": [
        {
          "name": "nameOfData",
          "type": "string"
        },
        {
          "name": "key",
          "type": "bytes32"
        },
        {
          "name": "locker",
          "type": "address"
        },
        {
          "name": "data",
          "type": "uint256"
        }
      ],
      "name": "lockWithRevertUint",
      "outputs": [
        {
          "name": "lockStatus",
          "type": "uint8"
        },
        {
          "name": "revertData",
          "type": "uint256"
        }
      ],
      "payable": false,
      "stateMutability": "nonpayable",
      "type": "function"
    },
    {
      "constant": false,
      "inputs": [
        {
          "name": "nameOfData",
          "type": "string"
        },
        {
          "name": "key",
          "type": "bytes32"
        },
        {
          "name": "locker",
          "type": "address"
        }
      ],
      "name": "isLocked",
      "outputs": [
        {
          "name": "",
          "type": "uint8"
        }
      ],
      "payable": false,
      "stateMutability": "nonpayable",
      "type": "function"
    },
    {
      "constant": false,
      "inputs": [
        {
          "name": "nameOfData",
          "type": "string"
        },
        {
          "name": "key",
          "type": "bytes32"
        },
        {
          "name": "locker",
          "type": "address"
        }
      ],
      "name": "lockWithDeposit",
      "outputs": [],
      "payable": true,
      "stateMutability": "payable",
      "type": "function"
    },
    {
      "constant": false,
      "inputs": [
        {
          "name": "nameOfData",
          "type": "string"
        },
        {
          "name": "locker",
          "type": "address"
        }
      ],
      "name": "lockSingleWithDeposit",
      "outputs": [],
      "payable": true,
      "stateMutability": "payable",
      "type": "function"
    },
    {
      "constant": false,
      "inputs": [
        {
          "name": "nameOfData",
          "type": "string"
        },
        {
          "name": "locker",
          "type": "address"
        }
      ],
      "name": "lockSingle",
      "outputs": [
        {
          "name": "",
          "type": "bool"
        }
      ],
      "payable": false,
      "stateMutability": "nonpayable",
      "type": "function"
    },
    {
      "constant": true,
      "inputs": [
        {
          "name": "nameOfData",
          "type": "string"
        },
        {
          "name": "key",
          "type": "bytes32"
        }
      ],
      "name": "getCurrLocker",
      "outputs": [
        {
          "name": "",
          "type": "address"
        }
      ],
      "payable": false,
      "stateMutability": "view",
      "type": "function"
    },
    {
      "constant": true,
      "inputs": [
        {
          "name": "locker",
          "type": "address"
        }
      ],
      "name": "isExpired",
      "outputs": [
        {
          "name": "",
          "type": "bool"
        }
      ],
      "payable": false,
      "stateMutability": "view",
      "type": "function"
    },
    {
      "constant": true,
      "inputs": [
        {
          "name": "locker",
          "type": "address"
        }
      ],
      "name": "expBlock",
      "outputs": [
        {
          "name": "",
          "type": "uint256"
        }
      ],
      "payable": false,
      "stateMutability": "view",
      "type": "function"
    },
    {
      "constant": true,
      "inputs": [
        {
          "name": "locker",
          "type": "address"
        }
      ],
      "name": "lastLock",
      "outputs": [
        {
          "name": "",
          "type": "uint256"
        }
      ],
      "payable": false,
      "stateMutability": "view",
      "type": "function"
    }
  ],
  "bytecode": "0x6080604052600a600055662386f26fc1000060015560146002556001600360006101000a81548160ff02191690831515021790555061177f806100436000396000f3fe6080604052600436106100ca576000357c01000000000000000000000000000000000000000000000000000000009004806314423fc3146100cf5780631d90382e146100fa578063294e2e5914610137578063396ab6f214610175578063491fb0f3146101915780634c54ecb1146101ad5780636612c79d146101d85780637d954f8814610215578063881b088e14610252578063b26e410e1461028f578063ba2eb541146102cc578063dabd2c8014610309578063de363e6514610348578063f56f48f214610373575b600080fd5b3480156100db57600080fd5b506100e461039e565b6040516100f191906115e3565b60405180910390f35b34801561010657600080fd5b50610121600480360361011c9190810190611323565b6103a4565b60405161012e91906115e3565b60405180910390f35b34801561014357600080fd5b5061015e6004803603610159919081019061145b565b6103f0565b60405161016c92919061159a565b60405180910390f35b61018f600480360361018a919081019061134c565b6104d4565b005b6101ab60048036036101a691908101906113f4565b6105a2565b005b3480156101b957600080fd5b506101c2610672565b6040516101cf9190611564565b60405180910390f35b3480156101e457600080fd5b506101ff60048036036101fa919081019061134c565b610685565b60405161020c9190611564565b60405180910390f35b34801561022157600080fd5b5061023c600480360361023791908101906113f4565b61069e565b604051610249919061157f565b60405180910390f35b34801561025e57600080fd5b50610279600480360361027491908101906113a0565b610763565b6040516102869190611549565b60405180910390f35b34801561029b57600080fd5b506102b660048036036102b19190810190611323565b6107c5565b6040516102c391906115e3565b60405180910390f35b3480156102d857600080fd5b506102f360048036036102ee9190810190611323565b610811565b6040516103009190611564565b60405180910390f35b34801561031557600080fd5b50610330600480360361032b9190810190611323565b61085f565b60405161033f939291906115fe565b60405180910390f35b34801561035457600080fd5b5061035d610889565b60405161036a91906115e3565b60405180910390f35b34801561037f57600080fd5b5061038861088f565b60405161039591906115e3565b60405180910390f35b60025481565b6000600560008373ffffffffffffffffffffffffffffffffffffffff1673ffffffffffffffffffffffffffffffffffffffff168152602001908152602001600020600301549050919050565b6000806103fe86868661069e565b915060028081111561040c57fe5b82600281111561041857fe5b14151561047757606060206040519080825280601f01601f1916602001820160405280156104555781602001600182028038833980820191505090505b50905083602082015260006005905061047088888484610895565b50506104bf565b61047f611122565b6104898787610913565b905060058081111561049757fe5b816040015160058111156104a757fe5b14156104bd576104ba8160200151610a83565b91505b505b6104ca868686610a90565b5094509492505050565b80600060015490506000600254600560008573ffffffffffffffffffffffffffffffffffffffff1673ffffffffffffffffffffffffffffffffffffffff168152602001908152602001600020600301540190508043101561053a5743810360020a820291505b81341015151561054957600080fd5b34600560008673ffffffffffffffffffffffffffffffffffffffff1673ffffffffffffffffffffffffffffffffffffffff1681526020019081526020016000206002018190555061059a8585610685565b505050505050565b80600060015490506000600254600560008573ffffffffffffffffffffffffffffffffffffffff1673ffffffffffffffffffffffffffffffffffffffff16815260200190815260200160002060030154019050804310156106085743810360020a820291505b81341015151561061757600080fd5b34600560008673ffffffffffffffffffffffffffffffffffffffff1673ffffffffffffffffffffffffffffffffffffffff16815260200190815260200160002060020181905550610669868686610a90565b50505050505050565b600360009054906101000a900460ff1681565b600061069683600060010284610a90565b905092915050565b6000806106ab8585610763565b90506106b683610c80565b156106c557600091505061075c565b6106ce81610811565b156106e6576106dc81610cb8565b600291505061075c565b8273ffffffffffffffffffffffffffffffffffffffff168173ffffffffffffffffffffffffffffffffffffffff16141515610756576040517f08c379a000000000000000000000000000000000000000000000000000000000815260040161074d906115c3565b60405180910390fd5b60009150505b9392505050565b60008061076f84610ea2565b905060046000828152602001908152602001600020600001600084815260200190815260200160002060000160009054906101000a900473ffffffffffffffffffffffffffffffffffffffff1691505092915050565b6000600560008373ffffffffffffffffffffffffffffffffffffffff1673ffffffffffffffffffffffffffffffffffffffff168152602001908152602001600020600101549050919050565b600043600560008473ffffffffffffffffffffffffffffffffffffffff1673ffffffffffffffffffffffffffffffffffffffff16815260200190815260200160002060010154109050919050565b60056020528060005260406000206000915090508060010154908060020154908060030154905083565b60015481565b60005481565b60006108a085610ea2565b905060006004600083815260200190815260200160002060000160008681526020019081526020016000209050838160010190805190602001906108e5929190611165565b50828160020160006101000a81548160ff0219169083600581111561090657fe5b0217905550505050505050565b61091b611122565b6004600061092885610ea2565b81526020019081526020016000206000016000838152602001908152602001600020606060405190810160405290816000820160009054906101000a900473ffffffffffffffffffffffffffffffffffffffff1673ffffffffffffffffffffffffffffffffffffffff1673ffffffffffffffffffffffffffffffffffffffff168152602001600182018054600181600116156101000203166002900480601f016020809104026020016040519081016040528092919081815260200182805460018160011615610100020316600290048015610a455780601f10610a1a57610100808354040283529160200191610a45565b820191906000526020600020905b815481529060010190602001808311610a2857829003601f168201915b505050505081526020016002820160009054906101000a900460ff166005811115610a6c57fe5b6005811115610a7757fe5b81525050905092915050565b6000808201519050919050565b600080610a9c85610ea2565b90508273ffffffffffffffffffffffffffffffffffffffff1660046000838152602001908152602001600020600001600086815260200190815260200160002060000160009054906101000a900473ffffffffffffffffffffffffffffffffffffffff1673ffffffffffffffffffffffffffffffffffffffff161415610b26576001915050610c79565b8260046000838152602001908152602001600020600001600086815260200190815260200160002060000160006101000a81548173ffffffffffffffffffffffffffffffffffffffff021916908373ffffffffffffffffffffffffffffffffffffffff160217905550600560008473ffffffffffffffffffffffffffffffffffffffff1673ffffffffffffffffffffffffffffffffffffffff1681526020019081526020016000206000016040805190810160405280838152602001868152509080600181540180825580915050906001820390600052602060002090600202016000909192909190915060008201518160000155602082015181600101555050506000544301600560008573ffffffffffffffffffffffffffffffffffffffff1673ffffffffffffffffffffffffffffffffffffffff1681526020019081526020016000206001018190555060019150505b9392505050565b60008073ffffffffffffffffffffffffffffffffffffffff168273ffffffffffffffffffffffffffffffffffffffff16149050919050565b6060600560008373ffffffffffffffffffffffffffffffffffffffff1673ffffffffffffffffffffffffffffffffffffffff168152602001908152602001600020600001805480602002602001604051908101604052809291908181526020016000905b82821015610d6257838290600052602060002090600202016040805190810160405290816000820154815260200160018201548152505081526020019060010190610d1c565b50505050905060008090505b8151811015610db957610d7f6111e5565b8282815181101515610d8d57fe5b906020019060200201519050610dab81600001518260200151610f1f565b508080600101915050610d6e565b5043600560008473ffffffffffffffffffffffffffffffffffffffff1673ffffffffffffffffffffffffffffffffffffffff16815260200190815260200160002060030181905550600560008373ffffffffffffffffffffffffffffffffffffffff1673ffffffffffffffffffffffffffffffffffffffff1681526020019081526020016000206000016000610e4f9190611205565b600560008373ffffffffffffffffffffffffffffffffffffffff1673ffffffffffffffffffffffffffffffffffffffff16815260200190815260200160002060010160009055610e9e82610f70565b5050565b6000816040516020018082805190602001908083835b602083101515610edd5780518252602082019150602081019050602083039250610eb8565b6001836020036101000a038019825116818451168082178552505050505050905001915050604051602081830303815290604052805190602001209050919050565b60046000838152602001908152602001600020600001600082815260200190815260200160002060000160006101000a81549073ffffffffffffffffffffffffffffffffffffffff02191690555050565b6000600560008373ffffffffffffffffffffffffffffffffffffffff1673ffffffffffffffffffffffffffffffffffffffff168152602001908152602001600020600201549050600360009054906101000a900460ff1615610fd957610fd6828261106a565b90505b8173ffffffffffffffffffffffffffffffffffffffff166108fc829081150290604051600060405180830381858888f1935050505015801561101f573d6000803e3d6000fd5b50600560008373ffffffffffffffffffffffffffffffffffffffff1673ffffffffffffffffffffffffffffffffffffffff168152602001908152602001600020600201600090555050565b600080600560008573ffffffffffffffffffffffffffffffffffffffff1673ffffffffffffffffffffffffffffffffffffffff168152602001908152602001600020600101549050600560008573ffffffffffffffffffffffffffffffffffffffff1673ffffffffffffffffffffffffffffffffffffffff1681526020019081526020016000206001015443111561110657600091505061111c565b600054438203840281151561111757fe5b049150505b92915050565b606060405190810160405280600073ffffffffffffffffffffffffffffffffffffffff168152602001606081526020016000600581111561115f57fe5b81525090565b828054600181600116156101000203166002900490600052602060002090601f016020900481019282601f106111a657805160ff19168380011785556111d4565b828001600101855582156111d4579182015b828111156111d35782518255916020019190600101906111b8565b5b5090506111e19190611229565b5090565b604080519081016040528060008019168152602001600080191681525090565b5080546000825560020290600052602060002090810190611226919061124e565b50565b61124b91905b8082111561124757600081600090555060010161122f565b5090565b90565b61127a91905b8082111561127657600080820160009055600182016000905550600201611254565b5090565b90565b600061128982356116ec565b905092915050565b600061129d82356116fe565b905092915050565b60006112b18235611710565b905092915050565b600082601f83011215156112cc57600080fd5b81356112df6112da82611662565b611635565b915080825260208301602083018583830111156112fb57600080fd5b611306838284611736565b50505092915050565b600061131b823561171a565b905092915050565b60006020828403121561133557600080fd5b60006113438482850161127d565b91505092915050565b6000806040838503121561135f57600080fd5b600083013567ffffffffffffffff81111561137957600080fd5b611385858286016112b9565b925050602061139685828601611291565b9150509250929050565b600080604083850312156113b357600080fd5b600083013567ffffffffffffffff8111156113cd57600080fd5b6113d9858286016112b9565b92505060206113ea858286016112a5565b9150509250929050565b60008060006060848603121561140957600080fd5b600084013567ffffffffffffffff81111561142357600080fd5b61142f868287016112b9565b9350506020611440868287016112a5565b925050604061145186828701611291565b9150509250925092565b6000806000806080858703121561147157600080fd5b600085013567ffffffffffffffff81111561148b57600080fd5b611497878288016112b9565b94505060206114a8878288016112a5565b93505060406114b987828801611291565b92505060606114ca8782880161130f565b91505092959194509250565b6114df8161168e565b82525050565b6114ee816116a0565b82525050565b6114fd81611724565b82525050565b6000601b82527f637572724c6f636b65722068617320746f206265206c6f636b657200000000006020830152604082019050919050565b611543816116e2565b82525050565b600060208201905061155e60008301846114d6565b92915050565b600060208201905061157960008301846114e5565b92915050565b600060208201905061159460008301846114f4565b92915050565b60006040820190506115af60008301856114f4565b6115bc602083018461153a565b9392505050565b600060208201905081810360008301526115dc81611503565b9050919050565b60006020820190506115f8600083018461153a565b92915050565b6000606082019050611613600083018661153a565b611620602083018561153a565b61162d604083018461153a565b949350505050565b6000604051905081810181811067ffffffffffffffff8211171561165857600080fd5b8060405250919050565b600067ffffffffffffffff82111561167957600080fd5b601f19601f8301169050602081019050919050565b6000611699826116c2565b9050919050565b60008115159050919050565b60006003821015156116ba57fe5b819050919050565b600073ffffffffffffffffffffffffffffffffffffffff82169050919050565b6000819050919050565b60006116f7826116c2565b9050919050565b6000611709826116c2565b9050919050565b6000819050919050565b6000819050919050565b600061172f826116ac565b9050919050565b8281833760008383015250505056fea265627a7a723058202ed53c1ab64fb2b465c7d1f3b3d85d4f3d9f68c682afdff83267776506a966b26c6578706572696d656e74616cf50037",
  "source": "pragma solidity ^0.5.0;\npragma experimental ABIEncoderV2;\n\nimport \"./TypesToBytes.sol\";\nimport \"./BytesToTypes.sol\";\n\ncontract LockableWithDataRevert is TypesToBytes, BytesToTypes{\n\n    struct Record {\n        bytes32 data;\n        bytes32 key;\n    }\n\n    enum Type {Bool, Address, String, Bytes32, Int, Uint} //TODO enhance support for all Int and Uints\n    enum LockStatus{User, Others, UserWithRevert}\n\n    struct DataRecord {\n        address payable lockStatus;\n        bytes dataBeforeLock;\n        Type dataType;\n    }\n\n    struct LockMap {\n        mapping(bytes32 => DataRecord) records;\n    }\n\n    struct UserRecord {\n        Record[]  records;\n        uint256   expiry;\n        uint256   deposit;\n        uint256   lastLockTime;\n    }\n\n    uint public TIMEOUT = 10; \n    uint public DEPOSIT_FEE = 0.01 ether ;\n    uint public COOLING_OFF = 20;\n    bool public scaleRefund = true;\n\n    //Takes in name of data structure and returns the LockMap for data structure.\n    mapping(bytes32 => LockMap) dataRecords;\n    mapping(address => UserRecord) public userRecords;\n\n\n   \n    \n    function saveData(string memory nameOfData, bytes32 key, bytes memory data, Type dataType) internal{\n        bytes32 hashKey = getHashKey(nameOfData);\n        DataRecord storage record = dataRecords[hashKey].records[key];\n        record.dataBeforeLock = data;\n        record.dataType = dataType;\n    }\n\n    // function lockWithRevertBool(string memory nameOfData, bytes32 key, address payable locker, bool data)\n    // public returns(bool)\n    // {\n    //     if(!lock(nameOfData, key, locker)) return false;\n\n    // }\n\n    // function lockWithRevertAddress(string memory nameOfData, bytes32 key, address payable locker, address data)\n    // public returns(bool)\n    // {\n    //     if(!lock(nameOfData, key, locker)) return false;\n\n    // }\n\n    // function lockWithRevertString(string memory nameOfData, bytes32 key, address payable locker, string data)\n    // public returns(bool)\n    // {\n    //     if(!lock(nameOfData, key, locker)) return false;\n\n    // }\n\n    // function lockWithRevertBytes32(string memory nameOfData, bytes32 key, address payable locker, bytes32 data)\n    // public returns(bool)\n    // {\n    //     if(!lock(nameOfData, key, locker)) return false;\n\n    // }\n\n    // function lockWithRevertInt(string memory nameOfData, bytes32 key, address payable locker, int data)\n    // public returns(bool)\n    // {\n    //     if(!lock(nameOfData, key, locker)) return false;\n\n    // }\n\n    function lockWithRevertUint(string memory nameOfData, bytes32 key, address payable locker, uint data)\n    public returns(LockStatus lockStatus, uint256 revertData)\n    {\n        lockStatus = isLocked(nameOfData, key, locker);\n        if(lockStatus != LockStatus.UserWithRevert){\n            bytes memory tmp = new bytes(32);\n            assembly { mstore(add(tmp, 32), data) }\n            Type dataType = Type.Uint;\n            saveData(nameOfData, key, tmp, dataType);\n        } else {\n            DataRecord memory record = getDataRecord(nameOfData, key);\n            if(record.dataType == Type.Uint) {\n                revertData = revertDataUint(record.dataBeforeLock);\n            }\n        }\n        \n        _lock(nameOfData, key, locker);\n    }\n\n    function revertDataUint(bytes memory data) internal view returns(uint _output) {\n        assembly {\n            _output := mload(add(data, 0))\n        }\n    }\n\n\n\n    //Checks whether key of data structure `nameOfData` is locked.\n\n    function isLocked(string memory nameOfData, bytes32 key, address payable locker) \n    public returns(LockStatus)\n    {\n\n        address payable currLocker = getCurrLocker(nameOfData, key);\n        \n        //if currLocker is 0x0 then it is obviously not locked.\n        if(isZeroAddr(locker)) return (LockStatus.User);\n        \n\n        //Checks if `currLocker` has expired, if so, proceed to unlock everything\n        // if `currLocker` is `locker` with expired lock, will treat as though its a new\n        // lock.\n        \n        if(isExpired(currLocker)){\n            \n            //This is considered a dirty unlock since it wasn't done requested by the user itself.\n            unlock(currLocker);\n            return (LockStatus.UserWithRevert);\n        }\n        \n        //At this point, currLocker != 0 and !expired, so we require that the\n        //currLocker has to be the locker, else revert all actions.\n\n        require(currLocker == locker, \"currLocker has to be locker\");\n        return (LockStatus.User);\n    }\n\n\n    function _lock(string memory nameOfData, bytes32 key, address payable locker) \n    internal returns(bool)\n    {   \n        //Assumes at this point that the timeout has not exceeded yet, since isExpired \n        //is queried in isLocked.\n        bytes32 hashKey = getHashKey(nameOfData);\n        //Since timeout has not exceeded, if locker is active there is no need \n        // to relock. Just return it.\n        if(dataRecords[hashKey].records[key].lockStatus == locker) return true; \n        \n        //Set lock onto the key of specific data structure hash key.\n        dataRecords[hashKey].records[key].lockStatus = locker;\n\n        //Add record of lock into address records\n        userRecords[locker].records.push(Record({\n            data : hashKey,\n            key : key\n        }));\n\n        //Adds expiry time of lock\n        //assert(userRecords[locker].expiry == 0);\n        userRecords[locker].expiry = block.number + TIMEOUT;\n\n        return true;\n    }\n    \n    function lockWithDeposit(string memory nameOfData, bytes32 key, address payable locker)\n    payable public hasEnoughDeposit(locker)\n    {\n        userRecords[locker].deposit = msg.value;\n        _lock(nameOfData, key, locker);\n    }\n    \n    function lockSingleWithDeposit(string memory nameOfData, address payable locker)\n    payable public hasEnoughDeposit(locker)\n    {\n        userRecords[locker].deposit = msg.value;\n        lockSingle(nameOfData, locker);\n    }\n    \n    function unlock(address payable locker)\n    internal\n    {\n        Record[] memory UserRecords = userRecords[locker].records;\n        for (uint i = 0; i < UserRecords.length; i++) {\n            Record memory curr = UserRecords[i];\n            _unlock(curr.data, curr.key);   \n        }\n        userRecords[locker].lastLockTime = block.number;\n        delete userRecords[locker].records;\n        delete userRecords[locker].expiry;\n        refundDeposit(locker);\n    }\n\n    function refundDeposit(address payable locker)\n    internal\n    {\n        uint256 refund = userRecords[locker].deposit;\n        if(scaleRefund){\n            refund = calculateScaleRefund(locker, refund);\n        }\n        \n        locker.transfer(refund);\n        delete userRecords[locker].deposit;\n    }\n    \n    function lockSingle(string memory nameOfData, address payable locker)\n    public returns(bool)\n    {\n        return _lock(nameOfData, bytes32(0), locker);\n    }\n\n    \n\n    //\n    //\n    //\n\n\n\n    //\n    // Helper functions and modifiers\n    //\n    function getHashKey(string memory arb) \n    pure internal returns (bytes32)\n    {\n        return keccak256(abi.encodePacked(arb));\n    }\n\n    function getCurrLocker(string memory nameOfData, bytes32 key) \n    public view returns(address payable){\n        bytes32 hashKey = getHashKey(nameOfData);\n        return dataRecords[hashKey].records[key].lockStatus;\n    }\n   \n   \n    function _unlock(bytes32 nameOfDataKey, bytes32 hashKey)\n    private\n    {   \n        delete dataRecords[nameOfDataKey].records[hashKey].lockStatus;\n    }\n    \n    modifier hasEnoughDeposit(address locker) \n    {\n        uint256 deposit = DEPOSIT_FEE;\n        //Calculate what the cooling off time is. If COOLING_OFF is 0, which means that cooling off is switched\n        //off, then it will always be the base deposit of DEPOSIT_FEE.\n        uint256 coolingOffTime = userRecords[locker].lastLockTime + COOLING_OFF;\n       \n        if(block.number < coolingOffTime){\n            deposit *= 2 ** (coolingOffTime - block.number);\n        }\n        require(msg.value >= deposit);\n        _;\n    }\n   \n    function isExpired(address locker) \n    view public returns(bool)\n    {   \n        \n        return(userRecords[locker].expiry < block.number);\n    }\n    \n    function expBlock(address locker) view public returns (uint)\n    {\n        return(userRecords[locker].expiry);\n    }\n    \n    function lastLock(address locker) view public returns (uint)\n    {\n        return(userRecords[locker].lastLockTime);\n    }\n    \n    function calculateScaleRefund(address locker, uint256 deposit)\n    internal view returns(uint256)\n    {\n        uint256 expiry = userRecords[locker].expiry;\n        if(block.number > userRecords[locker].expiry){\n            return 0;\n        } \n        return deposit * (expiry - block.number) / TIMEOUT;\n        \n    }\n\n    function isZeroAddr(address payable addr) internal pure returns (bool) {\n        return(addr == address(0));\n    }\n   //\n   // Debug functions\n   //\n    function getDataRecord(string memory nameOfData, bytes32 key) internal view returns(DataRecord memory) {\n        return dataRecords[getHashKey(nameOfData)].records[key];\n    }\n\n\n}\n",
  "sourcePath": "/Users/jakegsy/Documents/Yale-NUS/capstone/lock/contracts/LockableWithDataRevert.sol",
  "compiler": {
    "name": "solc",
    "version": "0.5.1+commit.c8a2cb62.Emscripten.clang"
  },
  "schemaVersion": "3.0.0-beta.2",
  "updatedAt": "2019-01-31T13:31:49.454Z",
  "devdoc": {
    "methods": {}
  },
  "userdoc": {
    "methods": {}
  }
}